:020000021000EC
:10200000C00A002029250100252501002525010001
:10201000C54D0100252501002525010025250100CC
:102020002525010025250100252501002525010084
:1020300025250100A0830300F122010025250100D0
:102040002525010025250100252501002525010064
:102050002525010025250100252501002525010054
:102060002525010025250100252501002525010044
:10207000A95C010025250100252501002525010079
:102080002525010025250100252501002525010024
:1020900025250100CD280100252501002525010069
:1020A00025250100F1290100CD2901002525010088
:1020B00025250100096F030025250100E9780300AB
:1020C000A17803009D780300D9700300E578030030
:1020D000A5780300BD780300A978030049790300BF
:1020E000C55303008D550300297903002525010000
:1020F000354C01002525010025250100252501007D
:1021000025250100252501002525010025250100A3
:102110002525010025250100252501002525010093
:102120002525010025250100252501002525010083
:102130002525010025250100252501002525010073
:1021400010B5054C237833B9044B13B1044800E0B3
:1021500000BF0123237010BD4410002000000000C8
:10216000A0CE030008B5034B1BB10349034800E0B0
:1021700000BF08BD0000000048100020A0CE0300F2
:10218000A3F5803A704700BF174B002B08BF134BD5
:102190009D46FFF7F5FF00218B460F461348144A72
:1021A000121A25F09AFE0E4B002B00D098470D4BCB
:1021B000002B00D098470020002104000D000D489E
:1021C000002802D00C4800E000BF25F01BFE2000D4
:1021D000290000F081F825F001FE00BF0000080092
:1021E0000000000000000000C00A00204410002091
:1021F000F02B002000000000000000007047704736
:1022000010B50368314A23F47F4323F00703934258
:1022100088B004D02E4A93424AD008B010BD0DF1C8
:102220000F0104A818F0AEFA014600B1FEE79DF8D0
:10223000153008228DF818309DF8143012208DF8D2
:1022400019309DF813308DF81A30FF238DF81B30AC
:10225000FE238DF81C309DF812308DF81D309DF84E
:1022600011308DF81E309DF810308DF81F3006AB00
:1022700018F05AFA00B1FEE7164C204618F0E0F9C3
:1022800000B1FEE70221207818F014FA034600B1ED
:10229000FEE7A02200901146207818F0E9F900B17D
:1022A000FEE70221207818F019FA0028B5D0FEE7E1
:1022B000084C0221207818F0FDF900B1FEE7022158
:1022C000207818F00BFA0028A7D0FEE7A000010044
:1022D000A0000601C00A002008B503F002FDFFF7C8
:1022E0008DFF03F00BFDFFF78AFF02F0EDFEF8E72C
:1022F00007F0A2BC03F01ABD10B5044600F0E6F8E2
:102300002046FFF77DFF10BD0120704700B5C3B028
:1023100007F0B4FB07F0DDFB48B1FFF7F5FF30B184
:1023200001A818F086F910B901A8FFF7E5FF43B03E
:102330005DF804FB08B50321802001F0F1FB0321C7
:102340004FF4806001F0ECFB03214FF4906001F04A
:10235000E7FB09214FF4C06001F0E2FB09214FF4D3
:10236000F06001F0DDFB09213E2001F0D9FB0921DD
:102370002D2001F0D5FB002008BD000008B5154B4D
:102380001B68C3F30743012B0ED1134B04205A6E75
:102390004FF480231149520358BF114A4B6601F58F
:1023A0001041086258BF536602F064FB02F004FB60
:1023B00002F07EFB02F022FB02F056FBFFF7BAFFB1
:1023C00002F00AFB00F070F900F024FBBDE80840C1
:1023D00002F08ABD0080E00F0080005000900050A5
:1023E00000A0005008B500F0C7FABDE8084000F0B2
:1023F0005DB808B503F0C4F902F05CFB06F00EF816
:1024000002F02EFC04F0ECFCBDE8084006F00CBA2B
:1024100008B502F0AFFA02F0BDFABDE80840FFF7D8
:1024200069BF704770477047FFF770BF7047012062
:1024300070470120704710B507F08CFB0446FFF78A
:10244000F6FF002814BF2046002010BD38B502F06A
:102450003DFF044607F08CFB042817D002284FF0FC
:10246000000508BF012400F099FE042810D00228BE
:1024700008BF0124FFF7DDFF04280BD0022808BFA6
:102480000124002D18BF0024204638BD0125EAE7AD
:102490000125EFE70024F7E718B1034B186000208F
:1024A00070472520704700BFBC10002010B5054CB8
:1024B0000549206800F074FD2068BDE81040FFF772
:1024C000EBBF00BFB80B0020940B00200368134A39
:1024D00023F47F4323F00703934210B5044615D03D
:1024E00002F18272934218D1B0F805101A2914D162
:1024F00001220B4B00791A70002218F02BF900B161
:10250000FEE7207918F0FEF838B1FEE7044B1B789F
:102510001BB1BDE8104003F0FCBB10BDA0000601DC
:10252000C0100020FEE7000008B500F02DF8124BA7
:1025300012498B4212D30020114B12498B4218D3FF
:10254000FFF722FE186850F82240586840F82240F1
:10255000013298688242F5D30C33EAE70022F8E7AB
:102560001C6844F8220001325C68A242F8D30833A8
:10257000E4E70022F8E700BFA8CE0300B4CE0300D2
:10258000B4CE0300B4CE03004FF400414FF0FF304F
:10259000124B134A10B59A60D3F8882042F47002A7
:1025A000C3F888200F4A916601F1884101F5005275
:1025B00010664FF6DF7050660220C3F8D000BFF3FC
:1025C0004F8FBFF36F8F08244FF440330648C0F895
:1025D0008041D36004600B6110BD00BF00ED00E0DE
:1025E000002001000090005000E100E0014B18685D
:1025F000704700BFC00C0020084B1B6F03F007039F
:10260000022B04D0032B05D0012B05D0FEE7044B91
:1026100018687047034BFBE7034870470080005081
:10262000C00C0020C40C0020002D310108B5FFF7BC
:10263000E3FF054B1B6FC3F303330133B0FBF3F030
:10264000024B186008BD00BF00800050BC0C002089
:102650000048704700B4C404014B1868704700BFBD
:10266000C40C0020054B1860054B1B6F03F00703DB
:10267000032B01D1FFF7DABF704700BFC40C002065
:10268000008000500020704700487047002D310145
:102690004FF4004070474FF47A707047014B186850
:1026A000704700BFC80C00200020836A10B5B3F546
:1026B000903F0AD2064C227812F0FD0F04D1DB695C
:1026C000984708B90123237010BD4FF48170FBE7D0
:1026D000C11000204FF00053074A1A60BFF34F8F1C
:1026E0000649074BCA6802F4E0621343CB60BFF3AC
:1026F0004F8F00BFFDE700BF02020FF000ED00E0CA
:102700000400FA0500230360704703680B60016052
:102710007047000005490A681318054883428CBFBA
:102720004FF0FF320B601046704700BFCC0C00200A
:102730000080002038B5124B05461B78DBB1E0B1B4
:1027400001F095FB0F4A00231146147B54B92B600E
:1027500001251A0101EB03131D738C5001F08DFB51
:10276000204638BD0133082B02F11002EDD101F0F3
:1027700084FB0548F5E70548F3E70548F1E700BFA6
:1027800044120020C4100020048000F0028000F0F9
:10279000018000F0154B13B51868002301908DF8E7
:1027A000043001F064FB124B1C7824B101F065FB8E
:1027B000104802B010BD01221A7001F05EFB0E4BF2
:1027C00001A81C731C7783F82C4083F83C4083F8E5
:1027D0004C4083F85C4083F86C4083F87C400823CD
:1027E0008DF8073001F01AFE2046E2E7F08303007F
:1027F00044120020038000F0C41000200A4A08B5EB
:1028000012785AB107280BD8084A02EB00131B7B39
:1028100043B1002101F0F4FD002008BD0448FCE7AD
:102820000448FAE70448F8E744120020C4100020E6
:10283000028000F0018000F0078000F00A4A08B52D
:1028400012785AB107280BD8084A02EB00131B7BF9
:1028500043B1012101F0D4FD002008BD0448FCE78C
:102860000448FAE70448F8E744120020C4100020A6
:10287000028000F0018000F0078000F00D4B1B7813
:1028800093B1072812D889B10B4B03EB00131B7BC4
:1028900073B10A4BDA6A012303FA00F010401ABF41
:1028A00000200B7008707047054870470548704756
:1028B0000548704744120020C41000200000045056
:1028C000028000F0018000F0078000F02DE9F8435D
:1028D000174B1F6D5B6D1F4000D5FEE701260025DD
:1028E000144CDFF85480DFF85490374217D0236837
:1028F000C8F850609BB1A168284601316268A160A8
:102900009847637B012B0AD148B909EB45131A7B21
:1029100060F341021A731A7F60F341021A7701359E
:10292000082D4FEA460604F11004DED1BDE8F88315
:1029300000000450C4100020002004504411002066
:1029400070B5044601250B4E04B970BD94FAA4F08D
:10295000B0FA80F005FA00F306EB001224EA030453
:102960005368002BF0D0117B11B191689847EBE7C9
:102970009847E9E74812002008B5192001F080FACD
:1029800028B14FF00072074BC3F880211A601A205B
:1029900001F076FA28B14FF08062024BC3F8802133
:1029A0001A6008BD00E100E038B505460C4601F0AC
:1029B0005EFA0022044B03EB05135C601A73BDE85A
:1029C000384001F05ABA00BF48120020074BD3F834
:1029D0002404D3F8202403F50053104000F05530B0
:1029E00020F05020C3F82004FFF7AABF00C0035016
:1029F000074BD3F82404D3F8202403F500531040E8
:102A000000F0AA3020F0A020C3F82004FFF798BF00
:102A100000C00350024B1968024B18681DF04CBBF4
:102A2000D40C0020D00C00207047000037B5920075
:102A300004460D46019225F08BFB431C0BD060B978
:102A400029462046019A25F011FA0028044808BFBB
:102A5000002003B030BD0348FBE70348F9E700BF9F
:102A600010E000F021E000F024E000F013B504468F
:102A700001A801F099FD9DF80630012223804FF452
:102A8000807300206380054B9B680A3303F01F03AB
:102A900002FA03F3636002B010BD00BF0080E00FD4
:102AA00001F0FEBC08B501F0EBFC002008BD10B53C
:102AB000044644EA010313F00303084609D1934294
:102AC00001D1002010BD54F8231040F82310013329
:102AD000F5E72146920025F0D9F9F2E710B5044652
:102AE00025F026FB431C15D0B0B90C4B20469B6843
:102AF0000A3303F01F020123934023F0030323440E
:102B0000984201D1002010BD50F8042B0132F7D0BB
:102B10000348F8E70348F6E70348F4E70080E00FCE
:102B20000EE000F021E000F024E000F008B501F034
:102B300097F9014B186008BDD81A0020014B18689E
:102B400001F092B9D81A00200A460139014402F076
:102B5000E3B8000038B141B1013AB2F5006F044862
:102B600038BF00207047034870470148704700BFD6
:102B7000037000F0027000F01FB504460B46C07EE3
:102B8000E17F002B39D00123042201F0F7FB012360
:102B9000022294F82010207F01F0F0FB94F83530E9
:102BA000022B19D10023012294F82110607F01F03B
:102BB000E5FB0023042294F82210A07F01F0DEFB45
:102BC000012394F8212001931146607F009301F0C6
:102BD0007DFB002004B010BD032BFAD1002301229D
:102BE00094F82110607F01F0C9FB0023042294F8BF
:102BF0002210A07F01F0C2FBEBE71A46039301F01D
:102C0000BDFB039B94F820101A46207F01F0B6FB11
:102C100094F83520039B022A12D11A4694F8211009
:102C2000607F01F0ABFB039B94F822101A46A07F53
:102C300001F0A4FB039B94F8212001930123C3E737
:102C4000032AC6D11A4694F82110607F039301F03D
:102C500095FB039B1A46CAE790F83530022B10D13A
:102C600014223023417F90F8210013FB012303F14C
:102C7000A04303F570331B6823FA00F000F0010055
:102C80007047002070470000002313B51D4A52F81A
:102C9000044B94F8211081420ED00133042BF6D15D
:102CA00002B010BD0028FBD19DF80730002BF7D0F3
:102CB000A068FFF7A3FDF3E794F83530022BEFD1BE
:102CC0002046FFF7C9FF637E2076022BE8D194F8F7
:102CD000323003F0FF02002BE2D1A0680DF10701B2
:102CE0008DF80720FFF7CAFD237E1BB194F833301F
:102CF000002BD7D00023A06884F83330FFF79EFD67
:102D0000CEE700BF8C1B0020104930B50B78104A6D
:102D10002BB9C2E90033C2E9023301230B700C4C1A
:102D20000023214651F8045B854208D00133042B6F
:102D3000F8D1002154F8043B1BB942F821000020CF
:102D400003E001310429F5D1024830BD9C1B00206D
:102D50008C1B0020027000F010B50446FFF71AFD2E
:102D6000002104F10800FFF7E5FC014620B904F159
:102D70000C00FFF7DFFC00B1004810BD0E7000F042
:102D800008B590F8363083B9042203685A619A690D
:102D90009207FCD541F21C62102103795B0103F11B
:102DA000A04303F57033995008BD022BFCD1006895
:102DB000036CDB074CBF0521062101F06BFA0222F0
:102DC000014BC3F8C020EFE700D40350F8B5054627
:102DD0000E461746FFF7BEFE002868D1152001F009
:102DE0005DF80446EA6A93889BB213B195F83230D5
:102DF000E3B195F83630F3B92B689C6904F002040E
:102E00001CB92846FFF7BCFF0024012385F83430A5
:102E100095F83630CBB93744BE42286810D1836963
:102E20009A06FCD51CB300242046F8BD002CDAD04D
:102E3000FFF74CFDD6E7022BE3D12B681C6CDDE7D6
:102E400016F8011B01F0B2FCE6E7022BEAD1374489
:102E5000B742286806D142F22003026C33EA02022C
:102E6000FBD1DFE716F8011B01F019FAF0E795F83E
:102E700036306BB942F21C6210212B795B0103F1F1
:102E8000A04303F57033995008222B685A61CBE7B1
:102E9000022BC9D12868036CDB074CBF09212146EE
:102EA00001F0F8F90222034BC3F8C020BCE7044646
:102EB000BAE700BF00E4035010B5044680B190F8B3
:102EC00032302BB9FFF7C8FE10B9A068FFF796FCA7
:102ED000002094F832300133DBB284F8323010BD78
:102EE0000048FCE7027000F010B50446A0B190F86D
:102EF00032309BB190F83230012B05D1FFF7ACFE98
:102F000010B9A068FFF79AFC002094F83230013B1A
:102F1000DBB284F8323010BD0148FCE70148FAE723
:102F2000027000F0057000F037B590F83550044697
:102F3000022D1DD1012290F82230457E817F9A40DA
:102F40003020164B25B900FB013342F2100105E099
:102F5000012D07D100FB013341F210015A5000202E
:102F600003B030BD247E00FB0133002CF4D1ECE72C
:102F7000012DF4D1037E73B911238DF80730FFF7CB
:102F80009BFF2A4620460DF10701FFF71FFF204651
:102F9000FFF7AAFFE3E71323EFE700BF00C00350EA
:102FA0002DE9F0410446744F88B001AE0D460FCFB5
:102FB0000FC697E8070086E80700002C00F0DA80CB
:102FC00025B96E4E304608B0BDE8F0815C22002184
:102FD000204624F082FF2046FFF796FE0646002892
:102FE000F0D12B7D84F835302B6884F836002360CF
:102FF0002A7B22710122A265614A934240F09E80A1
:10300000282363625F4B23614FF4802300266361B2
:10301000D5E90723A26216805680968084F8306036
:10302000E3621E805E809E806B6884F8316003934B
:10303000EB8984F83360ADF814302B8A0121ADF8A8
:103040001230AB7C3A208DF81030EB7CDFF84881F1
:103050008DF8163005238DF8113000F04BFA012160
:10306000606A00F047FA286801A98DF8046001F051
:103070001BFB14222B7B08EB4313C3F81C262E7A70
:10308000A87A46EA0042C3F83426697AEA7A41EA25
:103090000247C3F82C76E676E077217784F8202083
:1030A0006B7D01216377AB7D204684F82130EB7D79
:1030B000A3772B7E84F82230FFF75EFD06460028BA
:1030C00080D100F0D4FE2B7D0746032B41D141F285
:1030D0001C6202212B7B08EB431848F802100421E4
:1030E0002A685B0102F58052D165297EEA7D03F1F1
:1030F000A04342EA014203F57433C3F82826A97DB0
:103100006A7D42EA0142C3F824264FF0FF32286864
:1031100000F500539A642B7D032B0CBF052104217D
:1031200001F084FA4FF440622B6820465A61FFF7A1
:1031300013FE0646384600F0A0FE43E7124A9342CB
:103140007FF43FAF29236362104B23614FF4A02328
:103150005CE7022BD9D194F821000D49FFF724FC3C
:10316000FFF70AFC4FF4007320462383A676FFF78F
:10317000DBFECAE7074E25E718840300037000F062
:1031800000C00550020004000000065002000500C7
:10319000892C0100027000F000C003500B4B30B5C9
:1031A0001B7883B1012000230546094951F8042BFF
:1031B0002AB192F85840022C04BF2046956501338D
:1031C000042BF3D130BD0120FCE700BF9C1B002085
:1031D0008C1B0020044BD3F88420D206FBD4D3F8F8
:1031E0008400C0F3811070470040005038B5104B88
:1031F0000546D3F820310C4603F00303022B0BD015
:10320000032B0DD0012B0FD1FFF7F0F9052305B1EA
:10321000286004B1236038BDFFF71EFA0323F6E7E8
:10322000FFF732FA0223F2E700231846EFE700BF68
:103230000080005073B50D4600210E4B0191D3F86C
:103240008041064604F00304012C09D0022C0CD066
:103250000C460EB1019B336005B12C6002B070BD0D
:1032600001A8FFF7C3FF0F24F3E7FFF70DFA019062
:10327000EFE700BF0080005038B5174B0546D3F884
:1032800024310C4603F00703013B052B20D8DFE86F
:1032900003F0030F171B0B13FFF7A8F9052305B164
:1032A000286004B1236038BDFFF7A0F90623F6E7D4
:1032B000FFF7D2F90323F2E7FFF7CEF90423EEE795
:1032C000FFF7E2F90223EAE7FFF7DCF90723E6E775
:1032D00000231846E3E700BF0080005038B5104BCC
:1032E0000546D3F840310C4603F00303022B0BD004
:1032F000032B0DD0012B0FD1FFF7CAF9092305B11C
:10330000286004B1236038BDFFF7C8F90823F6E749
:10331000FFF7C1F90B23F2E700231846EFE700BFE0
:103320000080005038B5134B0546D3F800320C46E8
:1033300003F00703013B032B18D8DFE803F0020A70
:103340000E12FFF7A5F9092305B1286004B1236027
:1033500038BDFFF7A3F90823F6E7FFF79CF90B2325
:10336000F2E7FFF763F90E23800AEDE70023184622
:10337000EAE700BF0080005038B5104B0546D3F88F
:1033800040320C4603F00303022B0BD0032B0DD06D
:10339000012B0FD1FFF77CF9092305B1286004B197
:1033A000236038BDFFF77AF90823F6E7FFF773F9D2
:1033B0000B23F2E700231846EFE700BF0080005020
:1033C00038B5104B0546D3F860310C4603F00303C3
:1033D000022B0BD0032B0DD0012B0FD1FFF758F987
:1033E000092305B1286004B1236038BDFFF756F901
:1033F0000823F6E7FFF74FF90B23F2E700231846FF
:10340000EFE700BF0080005010B40D4C0B46D4F81D
:10341000204204F00304012C0AD0022C0CD008B185
:10342000002101600BB100221A605DF8044B704767
:103430005DF8044BFFF7DABE5DF8044BFFF74EBFB3
:1034400000800050B0F5207F1FD009D8B0F5007F74
:1034500015D003D868B1B0F5C07F0AD000200CE0C9
:10346000B0F5607FFAD10B4BD3F88000C0F30110A8
:1034700003E0084B186FC0F3033001307047054B71
:10348000D3F89000C0F30460F7E7024B186FC0F365
:103490008020F2E7008000504FF400320E4B0146CE
:1034A00010B500209A66FFF7CDFF41F67132484310
:1034B0000A490B4B88428CBF4FF480100020DC6916
:1034C000DA639A6822F4401202439A60E20344BF2E
:1034D0000022DA6310BD00BF00900050005A620263
:1034E0000000035008B5FFF7B3F8BDE8084000211D
:1034F000FFF7D2BF420910B510D0012A10D00B4BF4
:103500000B4C022A18BF234600F01F0051B103F5EF
:103510008053012202FA00F0186010BD1346F3E751
:10352000044BF1E703F50053F3E700BF6880005058
:1035300060820050648000501FB50023802804463C
:10354000019371D02AD8002872D0A0F12004412C18
:1035500032D8412C30D8DFE804F06B6E6B6E7D7D85
:103560007D7D6E6E873C9D623C6E6E6E2F2F2F2F81
:103570002F2F82546E6E6EA7A26E2F2F2F2F2F2FFC
:103580002F2F2F2F2F2F2F6B2F6B6B6B7D2F2F2F0D
:103590002F2F2F2F2F2F2F2F2F2F6B6BB0F5806FEB
:1035A00058D021D8B0F5007F4FD008D8B0F5807F33
:1035B0005FD0B0F5C07F3BD0019804B010BDB0F52E
:1035C000607F42D0F8D8B0F5207F34D0B0F5407F8E
:1035D000F2D1FFF72BF802464FF42070FFF732FFCD
:1035E000B2FBF0F0400821E0B0F5C06F52D00DD82A
:1035F000B0F5A06F33D0B0F5B06F35D0B0F5906FA7
:10360000DAD1002101A8FFF737FED5E7B0F5E06F6A
:1036100045D0B0F5F06F47D0B0F5D06FCCD10021D8
:1036200001A8FFF77FFEC7E7FEF7E6FF0190C3E7BB
:10363000FEF7FCFFFAE7FEF7F9FF02464FF42070B1
:10364000FFF700FFB2FBF0F0F0E7FEF7D5FF024610
:103650002046F5E7002101A8FFF7C8FDACE70021EF
:1036600001A8FFF7D1FEA7E7002101A8FFF7E2FDBF
:10367000A2E702934FF0E0231B695B0705D5FEF735
:10368000D5FF0290029B019396E703A902A8FFF7DA
:1036900025FEF7E7002101A8FFF720FE8CE70021B7
:1036A00001A8FFF769FE87E7002101A8FFF788FE60
:1036B00082E7000008B58020FFF73EFF034B9842E9
:1036C0009EBF4FF48032024B1A6708BD005A620257
:1036D00000A000501FB50023B0F5807F019377D084
:1036E00028D8382800F094800BD82438092810D81E
:1036F00009280ED8DFE800F0676767670D0D620DD7
:10370000377D52285FD008D83D283BD03E2800F0B6
:103710008480019805B05DF804FB8028F9D1414B05
:103720001B6F03F00703013B032BF2D8DFE803F024
:1037300044413F6CB0F5D06F5BD019D8B0F5A06FA5
:1037400066D00AD8B0F5806F3DD0B0F5906FE0D16B
:10375000002001A9FFF790FDDBE7B0F5B06F2DD099
:10376000B0F5C06FD5D1002001A9FFF7B7FDD0E7B4
:10377000B0F5006FECD00AD8B0F5E06F4DD0B0F5E1
:10378000F06FC6D1002001A9FFF71AFEC1E7B0F51E
:10379000086FBED1234BD3F8003103F00303022B93
:1037A0002CD0032B2ED0012B30D1FEF755FF032355
:1037B00000E005230193ACE70223FBE7002001A909
:1037C000FFF738FDA5E7002001A9FFF70FFDA0E7EF
:1037D00002934FF0E0231B695B0705D5FEF726FF38
:1037E0000C230393039BE5E703A902A8FFF776FDEB
:1037F000F8E7002001A9FFF795FD8AE7FEF74EFFE5
:103800000823D7E7FEF73EFF0723D3E70123D1E7DD
:10381000002001A9FFF7F8FD7BE7002001A9FFF7D1
:10382000ABFD76E70080005008B5FFF753FF08288E
:1038300011D00938012811D84FF40012094B4FF666
:10384000FF705A6603F5D8335B6A13F0010F18BF97
:103850004FF4FA7008BD044B1888FBE74FF6FF7071
:10386000F8E700BF00900050F40C002070B504464B
:103870008020FFF72FFF032800F082804FF4002202
:10388000444B02215A6645F60E03434AC2F8803083
:10389000424B9962012103F580539962936DD903DC
:1038A000FCD4D4E900131B0543EA0163E17B94F8DF
:1038B00022500B43217B94F8236043EA0143617B50
:1038C00043EA0133A17B43EA811313619169D4E98F
:1038D00004031B0643EA806301F000410B43A17E11
:1038E000E07E0B43217E43EA0143617E43EA0123EC
:1038F0009361E369126A002B0CBF0021082122F0BA
:103900000D0242EA030242EA8002234B42EA01022C
:103910001A6294F820204FEA421232D1986A94F841
:10392000211020F0330042EA0112024342F001026A
:103930009A621B4A996D32EA0101FBD102221749B2
:103940008A621A659A6D5200FCD41869A26820F444
:10395000700040EA02504FF0004218610F4B9A612C
:103960001DB9022203F580539A6216B901220D4B4C
:103970009A6294F824301BB1074B0B4AC3F880209D
:1039800070BD996A21F0330131430A4342EA45028E
:10399000EEE700BF0090005000C0005000D0005083
:1039A0000300014000E00050F1A7FFFF014B93F935
:1039B000000070479D1B00204FF4001208B5184B03
:1039C0005A660223174A5360936813F48033FBD17D
:1039D000012822D1FEF740FE134B984215D003F583
:1039E000122303F5F863984213D0104B00EB8002CA
:1039F000400AB3FBF0F0520A0A4BDA620122186364
:103A00005A620022074B5A6008BD45F67A10084AF0
:103A1000F2E745F61A00074AEEE75362F1E700BF06
:103A2000009000500040025000F049026466666653
:103A3000D8B80500BBCF05000029CCBF012100216B
:103A4000FFF72ABDB0F5207F10B50C4642D008D84C
:103A5000B0F5007F33D003D888B1B0F5C07F0ED069
:103A600010BDB0F5607FFBD11F4B013CD3F8801037
:103A700021F0300141EA0414C3F88040F0E7FFF779
:103A800031FD00F035F84FF48031184A164B1167BC
:103A9000196F013C21F4704141EA04341C67FEF7C0
:103AA000C5FD0446FFF796FBC0F102012046FFF773
:103AB000C3FF00F023F8BDE81040FFF7FBBD0A4B41
:103AC000013CD3F8901021F0F85141EA0464C3F8A6
:103AD0009040C5E7044B013C196F21F4806141EA35
:103AE00084241C67BCE700BF008000500090005099
:103AF00002214FF42070FFF7A5BF000008B54FF476
:103B0000C070FFF719FDBDE80840044988428CBF2A
:103B1000022101214FF42070FFF794BF80F0FA02D8
:103B2000B0F5807F70B50C4600F0F88029D83828B1
:103B300000F04B8110D82438092816D8092814D849
:103B4000DFE810F0DC00DC00DC00DC001300130018
:103B5000CD00130047003301522800F0CF8005D874
:103B60003D2851D03E2800F0418170BD8028FCD115
:103B70008B1E052B00F2B080DFE803F0AB99AE6935
:103B8000AEA8B0F5D06F00F0108132D8B0F5A06FBC
:103B900000F01B8116D8B0F5806F00F0AF80B0F553
:103BA000906FE2D1023C052C8CBF0021974B984AC4
:103BB00098BF195DD2F8243123F007030B43C2F8F4
:103BC0002431D2E7B0F5B06F00F08980B0F5C06F56
:103BD000CBD1083C032C8CBF00218E4B8C4A98BF64
:103BE000195DD2F8403123F003030B43C2F8403192
:103BF000BBE7B0F5006FD5D016D8B0F5E06F00F098
:103C0000F580B0F5F06FB0D1083C032C8CBF0021DB
:103C1000814B7F4A98BF195DD2F8603123F00303CE
:103C20000B43C2F86031A0E7B0F5086F9DD1CC1E00
:103C3000052C8CBF0021794B754A98BF195DD2F8CD
:103C4000003123F003030B43C2F800318DE7002558
:103C500002260121022000F003FAFFF743FCFFF7E0
:103C600047FF4FF480316E4B694A1967136F23F099
:103C7000070333431367FEF7D9FC0646FFF7AAFA9A
:103C8000C0F102013046FFF7D7FE0121002000F00D
:103C900027FAFFF733FFFFF70DFD002D7FF465AF27
:103CA000032C7FF462AF01225E4B9A625DE74FF412
:103CB00000225B4B0E465A66012203F540539D6A73
:103CC00003F58053C5F340059A62C2E70025042638
:103CD000BFE700250126BCE700252E46B9E7022CE8
:103CE00003D0A4F10F0044424441494BD3F8801162
:103CF00021F003010C43C3F8804136E7023C032C5A
:103D00008CBF0021484B424A98BF195DD2F8203140
:103D100023F003030B43C2F8203126E7A1F1080486
:103D2000082C3FF622AF01A353F824F0513D0100C7
:103D3000513D01006B3B0100513D01007F3D010001
:103D40006B3B01006B3B01006B3B0100513D0100EF
:103D50004FF480322E4B3549586E03F580535A6626
:103D60000B6A43F001030B62C1035CBF304B5A6620
:103D70004FF0E022136923F004031361F5E64FF4DA
:103D80008032234B2949586E03F580535A660B6ADB
:103D900023F001030B62C3035CBF254B5A664FF04F
:103DA000E022136943F00403E7E7083C062C8CBFCC
:103DB0000021204B164A98BF195DD2F8003223F03B
:103DC00007030B43C2F80032CFE60F2C0CD0102CA7
:103DD00014BF002102210E4AD2F8203223F003033F
:103DE0000B43C2F82032C0E60121F4E7083C032C63
:103DF0008CBF0021104B064A98BF195DD2F84032A3
:103E000023F003030B43C2F84032AEE65C840300A8
:103E10000080005058840300588403006984030024
:103E20000090005000E000505484030000C0075090
:103E300000A0005062840300588403000028ABBF38
:103E400000F16040054B00F5614000F00F00ACBF91
:103E500090F80003185C0009704700BF14ED00E003
:103E6000EFF3108072B6704700B962B67047EFF397
:103E70001180302383F31188704780F311887047D5
:103E8000054B420953F8223000F01F0023FA00F0DE
:103E9000C04300F00100704700E100E0014608B5B2
:103EA000EFF31083DB0702D50122104608BDFFF7B0
:103EB000E7FF02460028F7D10846FFF7BFFF01469B
:103EC000EFF3118313B1B0EB131FEDD2074B5B6817
:103ED000C3F30803002BE8D0103B58B2FFF7AEFF46
:103EE00088428CBF00220122DFE700BF00ED00E026
:103EF000194B10B51B6873B3184A5268012A2AD0AF
:103F0000174A8020C2F80031FFF7E4FB05281FD1D3
:103F10004FF4C070FFF796FA0128044604D102213D
:103F20004FF4C070FFF78EFD07220E4B1A6101227D
:103F3000A3F580535A60094A1369DB07FCD5012CAD
:103F400009D12146BDE810404FF4C070FFF77ABD9B
:103F50000122054B5A6010BDA01B002000C001507B
:103F60000080005000E0015000D0015000224FF4CA
:103F70000031074B1A60074A516602F598325268C1
:103F8000012A02BF044AD2F800211A60704700BF1C
:103F9000A01B00200090005000800050044A41788F
:103FA000536F23F4407343EA01235367704700BF04
:103FB000004000507047704710B5044608B1FFF745
:103FC000D5FF0E4A136943F00403136101F054FA5C
:103FD000FFF7F0FFFFF744FF24F0B2F8FFF744FFCC
:103FE000FFF7E9FF01F05CFA1CB1BDE81040FFF7F4
:103FF0007FBFBDE81040FEF719BB00BF00ED00E039
:1040000010B5044608B1FFF7B1FF0C4A136943F03D
:104010000403136101F030FAFFF722FF24F090F857
:10402000FFF722FF01F03CFA1CB1BDE81040FFF79A
:104030005FBFBDE81040FEF7F9BA00BF00ED00E039
:10404000FFF794BFFFF754BF034A0179D36E23F003
:1040500030030B43D36670470040005070470000A8
:10406000F8B504461C4BD3F88420D106FBD4D3F812
:104070008430C3F381139C422CD0FEF7BDFA012C8F
:10408000064602D12146FFF7D7FCFFF7E9FE4FF0C5
:104090000072124B07465A662046FFF7DFFF4FF4C7
:1040A00080630D4D621E93402B676B6E9A0103D4A3
:1040B000D5F884309B060AD53846FFF7D5FE022C8A
:1040C00008D13046BDE8F8400021FFF7B5BCD5F86F
:1040D0008430EAE7F8BD00BF0040005000600050A7
:1040E00007B518B90191FEF787FA0199064B1B78BD
:1040F00043B1064B984205D8012003B05DF804EBAC
:10410000FFF7AEBF0220F8E7A41B0020005A6202AE
:104110000278034B012100201A70FFF7E1BF00BFB6
:10412000A41B00204FF0004210B501244AF6CD3107
:10413000154B5A66154A03F50B2354605A6C1964E3
:10414000224088B9996811F0010F114903D08C60A1
:10415000D86AC007FCD501234B6012B10D4B0E4A43
:104160001A641DF0ECF810BDD96A0907FCD42021AF
:10417000074B59620121A3F58053996005494B6AA9
:104180009B06FCD5E9E700BF0090005000500950A5
:1041900000600950004009503254FFFF4FF00042C8
:1041A00038B5194B194C5A66012203F50C235A6095
:1041B0004AF6CD33656C236443781540934013432E
:1041C000134AD363A368827823F0740343EA02138B
:1041D000C278002A14BF042200221343A36002798C
:1041E000837943EA022323614279C37943EA0223B4
:1041F00063610078FFF796FF0DB1064B23641DF055
:104200009EF8012038BD00BF0090005000400950CA
:10421000004000503254FFFFC36C0B42FCD170478A
:1042200008B543680246DB0714D50A23502103630F
:10423000FFF7F2FF136C9907FCD1936A0121104636
:104240009362FFF7E9FF136C1B0604D4012302F508
:104250000052536008BD536BF5E738B50C46012199
:10426000024600F58053596004F00F0540F2FF71DB
:10427000FFF7D2FF78210563FFF7CEFF04F00103BB
:10428000610748BF43F00203116C01F0030199423A
:10429000FAD138BD09B9FFF7C3BFFFF7DEBF036C22
:1042A0005B06FCD5C163704770B5054614460E46E3
:1042B000FFF7D6FD296881EA040202EA06044C40B1
:1042C0002C60BDE87040FFF7CFBD0000072AF7B5AE
:1042D00001F0030614461F464FF003012CD8950049
:1042E000A94000FA05F21C480191FFF7DDFF019992
:1042F0001A4806FA05F2FFF7D7FF194B19499DF83E
:104300002000002F08BF1946012303FA04F40C60B3
:10431000154B1649002808BF0B461C60144B9DF82E
:104320002400C3F820441031A3F6DC33002808BF72
:104330000B461C6003B0F0BDA2F10805AD00A9401A
:1043400000FA05F20B480191FFF7AEFF01990A4808
:1043500006FA05F2CFE700BF00C4035008C40350BB
:1043600010E4035010D4035014D4035014E4035049
:1043700000E0035004C403500CC40350F8B50446D5
:104380000D461F4616464AB101238B403021194A7B
:1043900001FB0022FFB141F21001535004EB440332
:1043A000072D4FF00F014FEA031317D8A80006FAA4
:1043B00000F2814010481844FFF776FF56B90121FA
:1043C00030230C4801FA05F503FB040077B141F2F4
:1043D0001003C550F8BD42F21001DEE7A5F1080058
:1043E000800006FA00F281400448E4E742F210033C
:1043F000EFE700BF00C0035004C003500CC00350DF
:10440000044A054B002918BF1346012202FA00F0A6
:1044100018607047402004504010045010B501212E
:1044200004462020FFF766F801212120FFF762F8FB
:104430000122114B5A60227812069A606178A278A4
:1044400042EA01429A61FF229A6200229A631A6448
:104450004FF000425A654FF0FF324FF4001103F560
:1044600000531A65054AC2F88011E3781B01DBB2DC
:1044700082F81533116010BD0000045000E100E027
:104480004FF40032054B9A6641F6713203F51C3346
:10449000DA63012203F50053DA60704700900050A0
:1044A00041F671320121064BDA6303F50052D16007
:1044B0000022DA634FF40032A3F518339A6670478E
:1044C000000003504FF0B0435A6812B19A6A002AB4
:1044D000FAD17047CB784A7810B55B010C7843EA83
:1044E00082030A79234343EA02130C22424302F176
:1044F000B0421363012C02BF8A78024B43F820209C
:1045000010BD00BFE880035008B54FF0B0435A68B3
:1045100002B960B15B680BB1FFF7D4FF4FF0B04157
:1045200030B10120074B5860FFF7CCFFC86008BDD1
:10453000FFF7C8FF0223CB60FFF7C4FF0122024B45
:104540005A60F4E700100058002000584FF0B043C4
:104550005B6870B50BB1FFF7B5FF0121104B4578D3
:10456000596083780679002BC37814BF0224002495
:10457000002B14BF042200224379DB0043EA061318
:104580002B43234313434FF0B0429360054B5960D4
:104590000378002B14BF0B460223D36070BD00BF0D
:1045A00000200058001000584FF48032064B5A6625
:1045B00003F5E6235B69C3F38512827003F03F02C3
:1045C0001B0B4270037070470090005070B5054699
:1045D00016461C4621B94FF42070FEF7ADFF014688
:1045E000402C1BD003D8DCB1202C1BD070BD602C1C
:1045F000FCD1042303FB06F2560806EB4113B3FB80
:10460000F2F3094A203B02EAC303AA6822F06002DF
:10461000AA60AA681443AC60EB61E7E70623E9E708
:104620001023E7E70823E5E7F8FF7F00012200F504
:1046300080535A60CB43934003F00A0343614161C6
:1046400011B900F50050426070470000012200F5EA
:10465000805310B55A6040F6AA6341F205024361E7
:1046600000230E498360C365C26000F500520361F8
:10467000C361C36491640A498365884202D0094CCE
:10468000A04207D18842036502D0064B984201D16F
:10469000002343650123536010BD00BFFFFF0100ED
:1046A00000C005500000065070B50D46FFF7CEFF64
:1046B000012300F580567360AB7C04461BB1836810
:1046C00043F080438360EB7C5BB1354A2B7D9442A1
:1046D00045D1A2F51032C2F88C31E36D43F080036E
:1046E000E3652A8A6B7B20461343EA891343E36020
:1046F0002B7BD5E90112FFF769FF6B7D1BB1A36826
:1047000043F48033A360AB7D1BB1A36843F4004343
:10471000A360EB7D2A7E1B07120502F4E00203F082
:10472000E0431343A365697E1D4A8B1E012B1D4B7D
:104730001FD894421BD002F5804294420CBF012244
:104740004FF0FF3203EB4213022041F21C620329B7
:10475000985020D10423F3652B78636170BD124A11
:10476000944204BFA2F52032C2F89C31B5E7002282
:10477000E8E794420DD00C4A94420CBF01224FF05E
:10478000FF3203EB4213022042F21C6201299850CF
:10479000DFE70022F5E7042204F50053DA65DBE7E2
:1047A00000C0055000C003500000065083695B063E
:1047B000FCD5C1637047000038B50446054D1CF0B8
:1047C000E4FD0FCC0FC594E8030085E8030000204A
:1047D00038BD00BFA81B002047F6FF739A42F0B512
:1047E00063D0022963D8334BCF0003EBC10013F829
:1047F00031108478012913D10025C3781B1B9D42F9
:1048000002D3E018C0B2F0BD591B4668A3EB5101BA
:1048100036F911609642D4BF0D4601F1FF33EEE741
:1048200040680028EFD0B0F90010914204DBB0F9E5
:1048300002109142B8BF114682883B44FF2A19BF3B
:10484000C8222826B0F90620B0F90860A2EB0102C0
:104850000CBF0125002592FBF6F25F782A447B1EEF
:10486000934228BF13464FF47A7E00EBC305AE682F
:10487000EA88AC4611FB02621E4622EAE27201336C
:1048800002F5FA729F42B2FBFEF204D9BCF80CC0EA
:1048900008359445EBD200EBC6008088904228BFD3
:1048A0001046A04238BF2046ACE7FF20ABE700200F
:1048B000A9E700BFA81B00200229F0B553D82B4858
:1048C00000EBC10410F83110636801290FD1E078C2
:1048D000A478904294BFC4EB0001C4EB0201001B1A
:1048E000CAB28242C8BF002233F91200F0BD002BC9
:1048F00039D0A178914202D3B3F90200F6E7E1780A
:10490000B3F900009142F1D999886478A1F1FF06CA
:10491000013C714203F10405E4B2714103F10C075B
:104920001FFA82FCCEB2B44216D805EBC1014FF497
:104930007A756A43B1F902404968521A04EBD4719E
:1049400002EB610292FBF4F29042CFDBB3F902007A
:104950009042CBDC10B2C9E737F831E04E1CE64597
:10496000E3D33146DEE70248C0E700BFA81B0020C2
:104970000080FFFF08B50448FFF71EFFBDE80840B0
:1049800001201CF01DBD00BF70840300004870476B
:10499000F60C00207FB51422002101A823F09DFA17
:1049A000044B01A94FF0FF3002931CF071FD07B0DA
:1049B0005DF804FB006A180007B56B46054A1068ED
:1049C000516803C36846FFF7E9FB002003B05DF8B8
:1049D00004FB00BFF484030013B50024064A6846B4
:1049E000536F43F00103536700948DF80440FFF7C1
:1049F0002BFB204602B010BD0040005030B58BB0FC
:104A00006C46154D0FCD0FC40FCD0FC495E80300B4
:104A100084E80300114BD3F84C21120314D4D3F8CB
:104A20005041E4B28DF81940FEF7C0FF204480F3F6
:104A300008008DF818000A48FDF714FE6846FEF7D6
:104A400015FF00200BB030BD064B1C884FF6FF73DE
:104A50009C4208BF8C24E5E7FC8403000080E00F43
:104A600000F049020001E00F08B50120FEF7A4FFA5
:104A7000002008BD6FF00402502110B50A480B4C0D
:104A800012F0800FD3B21BBF03F00F03043BA31837
:104A90001B1802F101020CBF83F800131976402A9B
:104AA000EED1002010BD00BF00ED00E000E100E00D
:104AB00000F078B838B500F063FE0446E0B900F0C5
:104AC0005FFF4FF4167343430C4803F5742303F25E
:104AD0003F23B3FBF0F30A4A0A4913600A220D6828
:104AE0000948013A12F0FF0240F8043BF9D103EB08
:104AF000C3022B4413440B60204638BD40420F00D4
:104B0000FC1B0020C81B0020CC1B0020012208B584
:104B1000034B1A7000F028FF024B186008BD00BF5D
:104B2000C41B0020F81B0020F8B5144C237823B3D5
:104B300000F01AFF124B134D1B68134EC01A0128C8
:104B400038BF0120114B124F18602B7856F82320E4
:104B500046F82300111A3A680E48521A0A213A60A0
:104B60000932B2FBF1F20133DBB20260B3FBF1F2C6
:104B700001FB12332B7000232370F8BDC41B0020EF
:104B8000F81B0020F41B0020CC1B0020C01B0020C1
:104B9000C81B0020FC1B0020014B1868704700BF99
:104BA000FC1B002020234FF400220A4981F82C33FB
:104BB000094B5A66094A03F5405303F50050426712
:104BC00002674FF48050C1F88401486003445A677B
:104BD000704700BF00E100E000900050010000A01D
:104BE000044B9A6DD20702D40028FAD170470120F5
:104BF000704700BF00C000500C4B10B51C6FE2079F
:104C000007D5012203F500531A67FFF78DFF00F067
:104C10006DFB14F000521CBF054B1A67002CBEBF81
:104C20004FF00042024B1A6710BD00BF00C0005099
:104C300000E00050FFF7E0BFBFF35F8F074B5A6AF9
:104C400022F480325A62D3F8942022F00102C3F891
:104C50009420BFF34F8FBFF36F8F704700ED00E0DC
:104C600070B52648264CFFF7E7FF844208BF4FF097
:104C70008043244A18BF20F01F03D2F8C01018BF89
:104C8000203B21F0FF0141F0A001B3F1005FC2F829
:104C9000C0100CD31C4D1D4E296843F00103C2F80F
:104CA00098100131C2F89C60C2F8A030296084429B
:104CB00010D01548164B0268124923F01F0343F029
:104CC0000303C1F89820C1F89C30124B0132C1F89F
:104CD000A0300260BFF35F8F05220A4BC3F8942017
:104CE0005A6A42F480325A62BFF34F8FBFF36F8F1C
:104CF000BFF34F8FBFF36F8F70BD00BF640E0020F6
:104D00003C10002000ED00E0001C0020030000200B
:104D10005B100020E1FFFF3F10B51446FFF78CFF4A
:104D20001F2C24D91C4A1D4CD2F8C03023F47F43D9
:104D300043F48073C2F8C030C2061CBF20F01F00CD
:104D40002030CB06144A236818BF21F01F0120F041
:104D50001F0021F01F01C2F8983040F0030041F01D
:104D600003010133C2F89C00C2F8A0102360BFF316
:104D70005F8F0522084BC3F894205A6A42F48032B0
:104D80005A62BFF34F8FBFF36F8FBFF34F8FBFF3E5
:104D90006F8F002010BD00BF00ED00E0001C002060
:104DA000BFF34F8F0549064BCA6802F4E062134314
:104DB000CB60BFF34F8F00BFFDE700BF00ED00E009
:104DC0000400FA0508B5FFF7EBFF08BD034B1B789D
:104DD000002B14BF01200220704700BF341C0020AC
:104DE0000329F8B598BF124B05460E468CBF002428
:104DF0005C5C032805D8DFE800F002080B0E44F0E5
:104E000002040C4B1F684FB9F8BD44F00804F8E7E2
:104E100044F02004F5E744F08004F2E77B681A6868
:104E2000144203D0314628465B6898473F68EAE75A
:104E300024850300301C002038B5104D2B78ABB111
:104E40000F4C23781BB100F057FB00232370002088
:104E500000F074FB0B4C50B100F07AFB00230121F1
:104E600020782B70FFF7BCFF0123237038BD01228F
:104E7000054B1A702278054B1A70F7E72E1C00209C
:104E8000291C0020201C00202D1C0020401C00207C
:104E900010B5FEF7E5FF064B04461B781BB1BDE8D5
:104EA0001040FEF7E1BFFFF7C7FF2046F7E700BF5E
:104EB000281C0020002814BF0121FF21074A137875
:104EC0000B44137008D0064B1B78012B04D9054BFB
:104ED0001B780BB9FFF7B0BF704700BF341C002030
:104EE000201C00202D1C002070B5FEF7B9FF114ECC
:104EF000054633788BB900F043FC044620B12846C0
:104F0000FEF7B2FF204670BD0B48FDF7FBFB0B4BD5
:104F10001C6000F035FD0A4B186000F02FFA00F01D
:104F20004BFB084B00241860012328463370FEF722
:104F30009BFFE7E72A1C0020301C0020441C0020B7
:104F40003C1C0020241C002000292DE9F34114BF43
:104F50000121FF21254A00F1FF30135C0B4413545B
:104F60003AD0234E3278012A36D9FFF72FFF012895
:104F7000044634D81F4FFEF773FF3B781BB31E4D1A
:104F80002B781BB901222A701C4A1370DFF870803D
:104F900098F8003033B1019000F0AEFA0023019888
:104FA00088F80030FEF760FF012000F0C7FAFEF736
:104FB00057FF2B782BB1019000F0CAFA002301981B
:104FC0002B7000233B70FEF74FFF3078A04203D0D8
:104FD0002146FFF705FF347002B0BDE8F081032AD7
:104FE000F3D10228F1D100F001FBEEE7341C0020E0
:104FF000201C00202E1C0020281C00202D1C00201E
:10500000291C002010B50446FEF72AFF002C14BF0F
:105010000121FF21064A13780B44DBB21370B3FA67
:1050200083F3BDE81040034A5B091370FEF71CBF11
:10503000371C0020361C002068B5FEF711FF094B15
:1050400006461B78012B04D8FEF70EFF00252846E4
:1050500068BD054B1D6800F0B3FA05443046FEF705
:1050600003FFF4E7201C0020441C002007B5FEF7D6
:10507000F7FE0190FFF7E0FE019803B05DF804EB46
:10508000FEF7F2BE38B541600446FEF7E9FE05467C
:1050900021460448FDF739FB2846BDE83840FEF7B5
:1050A000E3BE00BF301C0020054B1B685843054B76
:1050B00000F5742000F23F20B0FBF3F0704700BF12
:1050C0003C1C002040420F002DE9FF47FEF7C8FEC0
:1050D000044600E000BFFDF7AEF9002800F09C8018
:1050E0006D4E6E4F337823B10020FFF7E3FE0023AF
:1050F0003370FFF76BFE0546002800F09580851E93
:10510000EDB2012D40F29880FFF760FE0128804645
:1051100004D9634B1B780BB900F0ACF9614DDFF893
:10512000A4912878DFF8A0A140450AD0002389F88F
:1051300000309AF8003013B94146FFF751FE85F868
:10514000008099F800303BB12B78022B04D100236A
:1051500089F800301CF058FEB8F1010F0FD9DFF8C4
:10516000408198F8003053B94F4B1B7823B900F0B9
:10517000BDF901224D4B1A70012388F800302878C0
:1051800000F004FA9AF8003013B1494B1B782B70E9
:1051900000E000BF2046FEF767FEFEF761FE454BCC
:1051A00004461A7852B100221A70414B28781B78B5
:1051B000984203D101212970FFF712FE384600F012
:1051C00019FBFDF743F9804600288BD1344F89F84D
:1051D00000003B789BB1DFF8D4908AF8000099F882
:1051E00000301BB100F088F989F80080002000F041
:1051F000A5F9002846D000F0ABF900233B703378C6
:1052000023B10020FFF756FE0023337000212878D9
:10521000FFF7E6FD00232B7000E000BF204604B03E
:10522000BDE8F047FEF720BE3378002B3FF46CAFAB
:10523000FFF740FE357067E7002003A900F05CFB34
:10524000054600287FF460AF1B4B039A1B689A4207
:1052500005D80120FFF72EFE0123337054E7174BCA
:10526000D3F8008000F0ACF9039940448842F0D2B2
:105270000223091ACDE9005338462B46104A00F0A4
:10528000E1FA41E7012000F081F92046FEF7ECFD4C
:10529000FEF7E6FD0446A9E7381C0020041C0020A8
:1052A0002E1C0020201C0020371C0020291C002060
:1052B000401C00202C1C0020241C0020441C00202A
:1052C000914E0100361C00202D1C002010B5FEF769
:1052D000C7FD0022044B1C781A70FEF7C5FD00F0D4
:1052E0001FFC2043C0B210BD2B1C002010B5094B81
:1052F0001B786BB1084C237853B100F029F90023D7
:10530000064A237013700123054A1370054A13706F
:1053100010BD00BF201C00202D1C00202E1C0020D2
:105320002B1C00202C1C00207047000073B5114E70
:1053300004463378834212D000238DF8043080B1C4
:1053400002238DF8053001A8FEF728FE0A4D402003
:1053500054B1FFF7A9FE2B68181A2860347002B008
:1053600070BD8DF80500EEE7FFF79EFE2B68184430
:10537000F3E700BFFC0C0020501C002073B5002494
:1053800001A88DF80440FEF7C3FE20464FF4002428
:10539000FFF7CCFF3149324B0A6F02F007021A6067
:1053A000D1F82031D1F8240101F580514C664FF439
:1053B00000344C6601F598318969032A00F0070032
:1053C00001F0020141D003F003039C1E63426341DC
:1053D000022808BF43F001032248234D037061B344
:1053E0001E4A3BB9D2F8003103F00303591E4B4269
:1053F0004B410370D2F8003103F00303022B26D097
:10540000032B27D0012B18D1FDF726F9A8B1174B94
:10541000411EDC680023024608461946C4F30B040B
:10542000134E013404EB8404E4FB060122F03EFB3E
:10543000FFF73AFE2B68184428606420FFF734FE1B
:105440002B681844286002B070BD0123C0E7FDF747
:1054500025F9DBE7FDF716F9D8E700BF008000501B
:10546000481C00204E1C0020501C002000C0015091
:1054700040420F00FEF7E4BD074B1A7852B10022FC
:105480001A70064A136F23F0070343F001031367F2
:10549000FDF7CCB8704700BF4C1C002000800050C6
:1054A0000E4B10B51B7883B1022000F0EDFB60B10C
:1054B00000F054FA48B10A4B9A6DD20306D5DB6D61
:1054C0009B0703D50122074B9A6210BD0124064BAE
:1054D0001C70FFF71BFB034B9C62F6E74E1C002081
:1054E00000C0005000D000504D1C00200122014B94
:1054F0001A7070474C1C002038B50C4B1B786BB1F0
:105500000B4C23787BB90B4B0B4D9A6D12F4803FFB
:1055100005D0DB6D9B0702D50123AB6238BDFFF7D9
:10552000F5FA0123AB6200232370F7E74E1C00203D
:105530004D1C002000C0005000D00050034B1B78D1
:105540000BB1FFF74DBB0120704700BF4E1C002080
:1055500008B5FEF777FD094A0949136F096823F07A
:1055600007030B431367074B1B7813B10122064B4C
:105570009A62BDE80840FDF759B800BF00800050AE
:10558000481C00204E1C002000E0005002280AD0D9
:1055900003280BD001280CD1064A136923F0040319
:1055A000136130BF70470020FEF706BD0020FEF7F4
:1055B00027BD704700ED00E04FF4C870FFF774BDE1
:1055C00008B5054B187818B1FFF7E6FA00EBD000E4
:1055D000024B1B68184408BD4E1C0020501C0020C4
:1055E0000122014B1A7070474E1C002070470000CA
:1055F00010B500F0E3FA0A4C0A4B19682368C31A85
:1056000001B10BB9206010BD4A699A423ABF9B1A9A
:105610000022D21A4A6128BF00238968F0E700BF40
:10562000581C00206C1C0020C38870B504460D4631
:105630003BB9FFF701FD8542064602D2FFF716FD92
:1056400035460F4965610B68ABB90C60A36011E08A
:10565000AD1A9A68184665612AB113465A69AA427A
:10566000F6D950B11A4613468460A36013B1596944
:10567000491B596170BD0020F0E70C60F5E700BFE1
:105680006C1C002038B5134D2B685B6993B1124A2E
:10569000022014681C4400F0CBFA204600F096FA71
:1056A00000230E492A680B70D088800709D5012392
:1056B0000B7038BD022000F0BBFA022000F0DCFACB
:1056C000EEE79268002AF4D050690344012BEBD92D
:1056D000EFE700BF6C1C0020581C0020601C00205D
:1056E00070B516469DF81420C0E903360271049A7D
:1056F000BDF8183002600022C380826004460D4667
:1057000000F05CFA3044A0613DB9E368656113B113
:1057100020462168984796B13546FEF7A1FB06461C
:10572000FFF766FF29462046FFF77EFF054B1B6803
:10573000A34201D1FFF7A6FF3046FEF795FB0020FC
:1057400070BD00BF6C1C002000220C490B687BB1AF
:1057500083420AD183687AB1936083681BB15A6926
:1057600041690A445A61002070471A469B68EEE777
:105770000028EFD0022070470B60EEE76C1C002081
:1057800070B5FEF774FB144E05463478FCB9134B24
:105790001C60134B1C60134B1C8000F0CDF90120E2
:1057A00000F046FA00F09AFA0F4B0246186020B952
:1057B0002846FEF762FB232070BD234640F2E73106
:1057C0000A4822F073F90A4B186001233370284607
:1057D000FEF753FB0020EFE7541C00206C1C002058
:1057E000581C0020621C0020681C002018FCFFFFD1
:1057F0005C1C00202DE9F0410546F8B1FEF730FBB6
:105800000F4F0646FFF7F4FE2846D7F80080FFF753
:105810009BFF044628B13046FEF726FB2046BDE834
:10582000F081A8453B6803D123B1FFF72BFFF2E7D6
:10583000002BF0D1022000F007FAECE72224EDE77C
:105840006C1C002070B586B015461E4604460591B6
:1058500080B1FFF7CFFFBDF82C30002202939DF8F6
:1058600028302046CDE9006305992B46FFF738FF25
:1058700006B070BD2220FBE738B50C46054698B14E
:1058800091B100230B70FEF7F2FA0121074B1B6860
:105890000BB122781AB1FEF7F0FA002038BDAB4206
:1058A00014BF9B682170F3E72220F7E76C1C0020EF
:1058B000F0B51F46002387B00D46164604468DF806
:1058C0001730A0B10DF11701FFF7D6FF9DF8172093
:1058D0007AB9BDF83430294602939DF8303020461D
:1058E000CDE900733346FFF7FBFE07B0F0BD222081
:1058F000FBE70320F9E700002DE9F0410746884661
:10590000FEF7B5FA00260546124B1C6824B9284656
:10591000FEF7B3FA1B2016E063691E44E388BB421E
:1059200015D100F04BF90C4C2368C01AB0420CD2D0
:1059300000F044F922683244121A2846C8F80020C0
:10594000FEF79BFA0020BDE8F0810022F5E7A4688D
:10595000DCE700BF6C1C0020581C0020014B1878AD
:10596000704700BF601C002038B5FEF780FA05467E
:1059700000F024F904462846FEF77FFA204638BD99
:10598000014B1868704700BF681C00200C4B70B5B5
:105990001B680D46834211D340F2E73100248C4648
:1059A0002146084B4FF47A721E680023E0FB06C1C3
:1059B000604622F07BF82860204670BD2120FCE77D
:1059C0005C1C0020681C00200F4B10B51A689AB1AF
:1059D0004FF47A71531E1342A0FB01010ED1B2FAAB
:1059E00082F2C2F11F04531CD243E04001FA03F3D8
:1059F000184321FA02F20243104610BD002322F0A0
:105A000055F80246F8E700BF681C0020C2072DE9E0
:105A1000F34704460BD53F4A138801339BB21380EA
:105A2000FFF7E6FD3C4B1B680BB1FFF72BFEA3070E
:105A30006DD5FEF71CFA002605463746FFF7D8FD60
:105A4000B146DFF8D480D8F800400CB163698BB15F
:105A50000022324B012F1A7002D1022E08BF1F7094
:105A6000002C44D0FFF70EFE284602B0BDE8F047F8
:105A7000FEF703BA23461A792179914288BF1C4662
:105A80009B6813B15A69002AF5D02846FEF7F5F94C
:105A9000256985B300F092F8A269861AF317B5421A
:105AA00079EB030328DA23691344A36101232269F4
:105AB00082B17BB9A91B0191FEF7D9F98246019900
:105AC0002046FFF7B1FDA369226950461344A36144
:105AD000FEF7D3F9E368E688013713B12046216861
:105AE0009847FEF7C4F90546FFF782FDABE70220B1
:105AF00000F0AAF8B8E72E46FEF7B9F9824620462C
:105B0000FFF722FE5046FEF7B8F90023CFE702B0B8
:105B1000BDE8F087621C00206C1C0020641C002083
:105B200010B5FEF7A4F9034B1C78FEF7A6F9204642
:105B300010BD00BF641C00201FB500241C4B0121B8
:105B400018689A880290D3F806009B7A00903E204D
:105B5000ADF80C208DF80430FDF7CCFC02A88DF8D0
:105B600008408DF80C40FEF7F1FC694601208DF8E5
:105B70000040FEF7AFFC4FF0B04240F2FF319369B6
:105B800023F47F7323F0030393610A4B5961936AF3
:105B900013F00803FBD113620120FEF7B5FC4FF4AC
:105BA0008052054BC3F880211A6004B010BD00BFBD
:105BB000288503000020005800E100E04FF0B043CA
:105BC0009A6A1207FCD4186A7047000010B50446A0
:105BD000FEF746F94FF0B042936A1907FCD4136AF6
:105BE000116C5269520604D4CA1A032A01D8994288
:105BF0000ED1E21A022A98BFDC1CB4F1FF3F38BF75
:105C0000013C4FF0B0431C649A6942F040029A6133
:105C1000FEF72AF9054A13783BB14FF0B041CB6B40
:105C200043F00203CB630023137010BDFD0C002072
:105C300082074FF0B04200F00103916948BF43F082
:105C400040030B4393617047820700F001030AD5BC
:105C50000121084A43F0400311704FF0B041CA6B74
:105C600022F00302CA634FF0B0418A6922EA0303BB
:105C70008B617047FD0C0020830742BF4022014B1F
:105C80005A617047001000584FF0B04301285B691B
:105C900004D0022805D1C3F38010704703F001003F
:105CA000704700207047000010B5FEF7E0F84FF095
:105CB000B04304465B695A06074A03F0010003F04B
:105CC000510348BF40F002005361FFF79FFE20469A
:105CD000BDE81040FEF7D1B8002000583E20FDF787
:105CE0002BBC08B5FCF74AFBFCF77CFBFCF781FBFF
:105CF000FCF78EFBBDE80840FCF793BB08B5FCF74A
:105D000091FBFCF790FBFCF78FFBBDE80840FCF72C
:105D10008DBBFCF7DFBC08B504F016F90AF044FBB4
:105D200007F092F908F093FA002008BD024A0349EF
:105D3000034803F079BD00BF34850300808503006C
:105D40005885030038B50446FEF78AF80546204614
:105D500022F07CF804462846FEF786F8204638BD37
:105D600037B504460191FEF77BF8019905462046B8
:105D700022F02CF804462846FEF776F8204603B0B9
:105D800030BD38B50546FEF76BF80446284622F0CC
:105D900065F82046BDE83840FEF766B80A4619B1F6
:105DA000024B00211B681847704700BF000D002000
:105DB00000F4E040B0F5805F04D0A0F500535842F5
:105DC00058417047012070470E4B0340B3F1607F8C
:105DD00006D1B1F5885F14BF6FF0860000207047D0
:105DE000B3F1707F0BD101F4E043B3F5005F06D14E
:105DF00011F4E06F0CBF6FF08600002070476FF069
:105E0000860070470000C07F8A42F8B507460D46FD
:105E100000F021819B4822F0FF01814210D09A4C72
:105E200022F4FF7323F00103A34209D0974B994258
:105E300006D0974922F47F7323F003038B4223D1CA
:105E400025F0FF01814210D08F4825F4FF7323F025
:105E50000103834209D08D4B994206D08C4925F429
:105E60007F7323F003038B420ED115F0FF030BD099
:105E7000884943F000738B4206D16A4032F0FF0339
:105E80000CBF01200020F8BD05F0FE43B3F1A06F68
:105E900017D102F0FE43B3F1A06F40F0DE8082EA3A
:105EA000050333F47E1340F0D88015F40040EAD0A7
:105EB000C5F30540C2F3054290428CBF002001208B
:105EC000E1E7B3F1407F40F0B38002F0FE43B3F16D
:105ED000407F40F0C28082EA050333F47E1640F032
:105EE000BC8039462846FFF76FFF002840F0B58098
:105EF000694C12F47C1C04EA020438D0B4F1607FCF
:105F0000C2F3054C7AD16549D3B243F000738B429A
:105F100078D003F17E410439012975D960498B425B
:105F200076D001318B4275D001318B4274D0013172
:105F30008B426BD001318B426AD001318B4269D0E8
:105F400003318B4264D001318B4263D001318B42EB
:105F500062D001318B4208BF402615F47C1FC5F387
:105F600005435BD1664514BF002001208BE7B4F1E7
:105F7000607F2BD14949D3B243F000738B426ED07E
:105F800003F17E41043901296CD945498B426FD018
:105F900001318B426FD001318B426FD001318B4286
:105FA00063D001318B4263D001318B4263D0033126
:105FB0008B425DD001318B425DD001318B425DD08F
:105FC00001318B4208BF4FF0400C9CE7B4F1707F69
:105FD000C3D107F4E043B3F5005F05D14FF0010CE6
:105FE000C7F302230CFA03FC07F4E043B3F5005FA8
:105FF000B3D10126C7F302239E40AEE7B4F1707F10
:10600000ABD1F1E71026A8E71426A6E74026A4E7BF
:106010001C26A2E72026A0E730269EE712F47C1F6C
:1060200001D1B34217D02A047FF52DAF634544E771
:10603000B3F1106F11D125F01F6323F4702363B9FE
:1060400002F0FE43B3F1106F07D11648104040F044
:106050001060A84287E7012015E7002013E74FF002
:10606000100C50E74FF0140C4DE74FF0400C4AE78E
:106070004FF01C0C47E74FF0200C44E74FF0300C7A
:1060800041E700BF001300060002000600090006F9
:1060900000040006FF0000020000C07F03000002B1
:1060A000080000020000FFF67FB500F0FE46B6F1E2
:1060B000106F0D4603D06FF0850004B070BD20F066
:1060C0001F6424F47024002CF5D10A9C0294099CCE
:1060D0000194089C009401F001F810F1860FECD1B6
:1060E0006B681B0AE9D1E6E72DE9F84388461746B5
:1060F0001C4601F0C9F80546002859D1D8F80060BF
:10610000B6F8009009F4E043B3F5804FF36808BF98
:1061100027F0010737EA030342D1002C48D02F4A69
:1061200024F0FF03934211D02D4924F4FF7222F092
:1061300001028A420AD02B4A934207D024F47F728C
:1061400022F0030201F500718A4234D114F0FF02FB
:1061500031D022498B4211D0214824F4FF7121F023
:10616000010181420AD01F498B4207D024F47F737A
:1061700023F00303A1F5A0618B4204D142F0007328
:10618000194A93421ED0224648463169FFF73CFE29
:10619000074668B9224648467169FFF735FED0B90F
:1061A0006FF0840500233046C8F8003001F0BAF8DB
:1061B0002846BDE8F88304F0FE43B3F1407F04D1E4
:1061C0002304E0D56FF08605ECE7B3F1A06FF7D0BC
:1061D000054B9C42D6E73D46EAE700BF00130006A8
:1061E0000002000600090006FF00000238B503792E
:1061F00004460D4633B9A36820462B6001F092F89F
:1062000038B938BDD0E9081201F050F90028F2D0B1
:10621000F7E700232B60F4E700F0FE43B3F1407F83
:1062200070B505460E4640F09980FFF7CDFD002879
:1062300040F0968015F47C1F05D0C5F30543032B71
:1062400013700DD86BE04C4B2B40B3F1607F69D1DC
:106250004A49EBB243F000738B4231D110231370E3
:10626000454C2C40B4F1607F6AD14449EAB242F017
:1062700000728A4275D002F17E410439012972D937
:106280003F498A4271D001318A4270D001318A423D
:106290006FD001318A4211D001318A4265D001317B
:1062A0008A4264D003318A425FD001318A425ED093
:1062B00001318A425DD001318A424FD140214BE009
:1062C00003F17E410439012901D81423C7E72C4981
:1062D0008B4201D11C23C2E72A498B4201D12023E2
:1062E000BDE729498B4201D13023B8E727498B42CA
:1062F00001D14023B3E726498B42EBD001318B42D9
:10630000EDD003318B42E5D001318B42E7D0013132
:106310008B42E9D001318B42EBD0002313706FF038
:1063200085001DE0B3F1707FF7D101F4E043B3F5D0
:10633000005FF2D10123C1F302218B40DBB27EE783
:10634000B4F1707F0AD106F4E042B2F5005F05D1E6
:106350000121C6F3022291408B4201D96FF08600E1
:1063600070BD1021F8E71421F6E71C21F4E7202185
:10637000F2E73021F0E700BF0000C07F0300000219
:1063800008000002090000020A0000020B000002DF
:106390000C0000022DE9F047174624220D4600218B
:1063A000044692B00DEB02009A46DDE91A868DF89C
:1063B0001F10DDF8709021F090FD1D9B2046002BF2
:1063C00018BF4FF480622B4608BF4FF4006208A943
:1063D000FFF78AFE044620BBDDF820C009ACBCE80C
:1063E0000F000FC49CE8070084E807002846BDF8AA
:1063F00024100DF11F02FFF70FFF044688B99DF826
:106400001F30B34224D8CDE90339CDE901A808995A
:1064100000972B46D1E9081209A800F00CFE0446AB
:1064200020B10023C9F800608DF81F309DF81F00CF
:10643000B04204D2321A2121404421F04EFD089886
:1064400000F070FF002C18BF204612B0BDE8F087A6
:106450006FF08904E5E700232DE9F341D0E90168F5
:1064600004460F4630461146136000F065FF0546AE
:1064700088B9304600F062FF054660B9F6B276B9D9
:10648000B8F1000F05D1E36823F47F4323F0030341
:1064900063B16FF08605284602B0BDE8F081014681
:1064A000A06800F044FE0028EDD1F2E74FF6F87343
:1064B00062889A421CD8238B23F00103002BE8D179
:1064C000394601A800F09EFE05460028E3D10FCC16
:1064D0003F683E460FC694E807003B7986E8070010
:1064E0000BB9019BBB603B8B23F001033B83D2E7DD
:1064F0006FF08505CFE7B0F5105F0DD009D8B0F586
:10650000885F10D0B0F5905F0DD041F20103984242
:1065100009D06FF08500704721F04003802B02D036
:10652000B1F5807F06D111F0070F14BF6FF0860020
:10653000002070476FF08600704770B5046A05460A
:106540000E463CB90120FFF70BFC286228B120461B
:106550006E6270BD6FF08A00FBE76FF08C00F8E7A9
:1065600073B50E46114605460192FFF7E6FF044655
:1065700020B93146019A286A21F088FC204602B0F1
:1065800070BD2DE9F041089D88461F46048802B37E
:106590002046FFF70DFCE0B12B680BB9D3002B6050
:1065A00020462968FFF7A7FF044678B9CE1DB2EB55
:1065B000D60F11D1069B9A4211D84146384621F098
:1065C00065FC2B68079A0733DB0813602046BDE89B
:1065D000F0816FF08504F9E76FF08604F6E76FF05D
:1065E0008904F3E710B50446006A10B1616AFFF749
:1065F000D5FB206AFFF7C5FB0020C4E9080010BDE9
:1066000038B50446FFF7EEFFE3692822012B0CBFE3
:1066100005466FF096050021204621F05EFC2846D5
:1066200038BD13B5044660B101A900F02DFE044643
:1066300038B90198C369012B06D900F073FE6FF0D9
:106640008304204602B010BD0379FF2B0BD01BB191
:10665000806800F085FE04460198FFF7D1FF00280E
:1066600018BF0446EDE76FF08404F5E773B5044600
:1066700008460E4600F0D6FB002320461A4601A924
:10668000FFF732FD70B93446019D0FCD0FC495E878
:10669000070084E80700338B019803F0010333837C
:1066A00000F040FE02B070BD70B5144602881D4671
:1066B0001046049EFFF77CFB50B944F2010322F41C
:1066C0004050984204D002F44F42B2F5824F0ED1AE
:1066D000B4420FD82246284621F0D8FB0021321BB5
:1066E000281921F0FAFB0020059B1C6070BD6FF09B
:1066F0008500FBE76FF08900F8E72DE9F041884657
:106700001F4616468CB022B3002301223B6002A92B
:10671000FFF7EAFCD0B9DDF808C003AC6546CDE967
:106720000A000FCD0FC495E8070084E80700CDE903
:1067300000674346DCE9081203A800F03EFC04466B
:10674000029800F0EFFD002C18BF20460CB0BDE809
:10675000F0816FF08900F9E770B51446028844F2C1
:10676000010022F440568642049D04D002F44F40BA
:10677000B0F5824F13D102F4E042B2F5804F0ED152
:10678000AC420FD81846224621F080FB00212A1B7C
:10679000204421F0A2FB0020059B1C6070BD6FF01F
:1067A0008500FBE76FF08900F8E72DE9F0438946A3
:1067B000984617468DB052B3002302A91A46C8F86E
:1067C0000030FFF791FCE0B9029E33885B041BD5D3
:1067D000354603ACCDE90A000FCD0FC495E807009C
:1067E00084E80700CDE900784B46D6E9081203A8F3
:1067F00000F0EEFB0446029800F094FD002C18BF58
:1068000020460DB0BDE8F0836FF08604F3E76FF02B
:106810008900F6E72DE9F0411F46002388B00546C0
:1068200088461646CDE9043307923B60002A5FD0C4
:10683000B2F1005F5FD205AA04A9FFF70CFE04467F
:10684000A0B9049B1B6ABBB1049B41465A882846E9
:10685000069206AA029203F1240201925A6A009259
:106860001B6A324600F082FB0446D0B1049800282F
:1068700032D0FFF7C5FE2FE06B681B0A07D10799DE
:106880000498FFF75AFE04460028DDD0EEE73246B2
:106890004146284607AB00F0F4FA04460028EED043
:1068A000E4E70498069B4288D2B943804FF6F87219
:1068B00093421AD82B8813B102889A4212D12B6ABC
:1068C00083B96B8813B142889A420BD13946FFF7DE
:1068D0008DFC04460028C9D1204608B0BDE8F081EF
:1068E0009A42E3D06FF08604C0E76FF08504BDE7FD
:1068F0006FF08604F0E76FF08504EDE7036810B5EC
:10690000044653B100F0E1FB00232360A38823F485
:10691000FF7323F00103A38010BD1846FCE72DE9A7
:10692000F04105460C4600218CB0174603A82422EE
:106930009846029121F0D1FA2B68002B3DD1B8F195
:10694000000F20463B4614BF4FF480624FF40062B4
:1069500002A9FFF7C9FB044600BB029E03AC0FCEA1
:106960000FC496E8070084E807003846BDF80C100D
:106970002A1DFFF751FC044680B96B79284668F35D
:1069800000036B71029B03A9D3E908230097B8F1B8
:10699000000F0FD000F05CFB044610B12846FFF753
:1069A000ADFF029800F0BEFC002C18BF20460CB0D2
:1069B000BDE8F08100F05FFBEEE76FF08804EDE7E3
:1069C0000123FFF7ACBF38B50368054614464BB149
:1069D00032B100F063FB044610B12846FFF78EFF8A
:1069E000204638BD6FF08804FAE72DE9F0411646DD
:1069F000026805460F469846F2B14279D2071BD588
:106A00000279CAB1B2421AD800F051FB044618B15B
:106A10000023C8F800602B712879B04204D2321AE2
:106A20002121384421F059FA2846FFF767FF002C4E
:106A300018BF2046BDE8F0816FF08804E8E76FF0EA
:106A40008904E5E71FB501240394089C0294079C80
:106A50000194069C0094FFF79DFC04B010BD00005B
:106A600037B50C4D0C462B78DB070FD500230A46B3
:106A70000193014601AB281D02F048FE20B9019B9D
:106A8000A34218BF6FF0930003B030BD6FF08800D1
:106A9000FAE700BF701C00202DE9F04F00249A4651
:106AA00001F0FE4397B0B3F1806F0E46DDE920B8E8
:106AB0009146229F089478D10B464FF4807208A922
:106AC000FFF712FB0546002841D1DDF820C00DACD0
:106AD0006546CDE914000FCD0FC495E80700BCF85A
:106AE000003084E8070003F4E042B2F5005F1BD1F8
:106AF00013F4E06FC3F3022116D0304826F48072FD
:106B000082420AD000F50070864206D02C488642A8
:106B100003D0A0F53F40824206D101248C40102CC6
:106B20000DD96FF0830512E042F20402934202D1C4
:106B3000244B9E421ED0244B9E421DD10D24A045C5
:106B400030D3214609A8FFF78BFF0546A8B1089866
:106B500000F0E8FB064665BB50BB24B12246584610
:106B600009A921F093F93B6823443B60304617B0F4
:106B7000BDE8F08F0C24E2E70024A8EB04030593A2
:106B80000BEB0403CDE903A3CDE90149089909AB57
:106B9000009306973346D1E908120DA800F03AFA9F
:106BA0000546D4E76FF08905D1E76FF08605CEE79B
:106BB000054600232E463B60D8E700BF0010C00406
:106BC00000FF4004000180040013C0042DE9F047D9
:106BD00005469A46002386B0059305F0FE43B3F1BF
:106BE000106F0846DDE90E961746DDF8408022D189
:106BF0002B464FF4804205A9FFF776FA044658B9B0
:106C000053463A462846CDE901680599CDF80090EB
:106C1000FFF74AFA044628B131464846FFF720FFFD
:106C2000C8F80060059800F07DFB002C18BF2046D6
:106C300006B0BDE8F0876FF08604EDE7034610B5B7
:106C40000C461146DA6900880AB91B6A3BB9FFF79E
:106C5000AFF838B12046BDE81040FFF701BF6FF034
:106C6000860010BD6FF08500FBE72DE9FF41002392
:106C7000CDE901330B60438806460D46002B00F03A
:106C80008E80038803F4E043B3F5804F00F08780E3
:106C900002AA01A9FFF7DFFB044600BB019B1B6AA8
:106CA00073B10199304601F12403D1E9081200F0D3
:106CB0003FF90446002875D00198FFF793FC0EE0D9
:106CC0007268170A60D1B6F8008071884046FFF7F5
:106CD0006FF860B14046FFF70EFC044660B10198C2
:106CE00008B1FFF78DFC204604B0BDE8F08128F024
:106CF000FF03B3F5E24F4FD108F4E043B3F5805FF3
:106D000002D0B3F5005F02D1CA1DD7100AE047F2E6
:106D1000010398450FD14A080132D21002EBC2029A
:106D200002F13B07039703990198FFF706FC04461D
:106D30000028B6D0D3E744F20103984503D1CA082E
:106D400002F11007EEE747F20203984505D1CA08A1
:106D500002EB420202F15A07E4E744F202039845CB
:106D600005D1CA0802EB420202F14A07DAE728F02D
:106D7000FF00B0F5E24FC7D0B0F5824F01BFCA1D8A
:106D8000D2105200571CCDE7304603A900F07EF820
:106D900004460028C7D0A2E76FF085049FE76FF094
:106DA0008604A0E729460198FFF720FA0446002848
:106DB00099D094E708B500F00BFA084B0C211A782B
:106DC000064812F0060F1CBF0022C3E90122FEF79D
:106DD000E5FFBDE8084000F053B800BF701C00207C
:106DE00038B50F4D2B7813F0010213D1C5E90122FC
:106DF000022262F342032B7000F0DEF9044658B918
:106E000000F03CF8044638B92B7843F001032B70AE
:106E1000204638BD0024FBE7FFF7CCFFF8E700BFB2
:106E2000701C002010B50446C069FEF7AAFF20467A
:106E3000BDE810402422002121F04FB82DE9F04197
:106E400005460F4690461C469BB119460120FEF7A9
:106E500087FF064678B12246414621F017F8E869D7
:106E600008B1FEF78EFF0020C5E907642F80BDE85A
:106E7000F0811E46F3E76FF08C00F8E702F044BCA7
:106E8000704700226FF086001A60704702884388BE
:106E90004068000A47D102F4E040B0F5805F02D0BC
:106EA000B0F5005F05D10733DB0863B96FF08500EB
:106EB000704747F2010082420FD15B080133DB08C3
:106EC00003EBC3033B3322F0FF02B2F5824F01D143
:106ED000012BEBD000200B60704744F2010082428E
:106EE00002D1DB081033EEE747F20200824204D100
:106EF000DB0803EB43035A33E5E744F20200824226
:106F000004D1DB0803EB43034A33DCE722F0FF0044
:106F1000B0F5E24FC7D0B0F5824FC7D10733DB08D9
:106F20005B000133CFE700236FF086000B607047F2
:106F30002DE9F041476804463F0A0D46164698463B
:106F400011D107887F0407D443463246294620469C
:106F5000BDE8F041FFF772BE02F0AAF810F1860F0B
:106F6000F2D0BDE8F0816FF08600FAE72DE9F04F2E
:106F7000456885B02D0A0446DDE90E7A8946164635
:106F80009846DDF840B013D1CDE901AB009702F08F
:106F900079F910F1860F0DD1434632464946204615
:106FA000CDE90FAB0E9705B0BDE8F04FFFF7E9BA9A
:106FB0006FF0860005B0BDE8F08F70B44668360A01
:106FC00002D170BCFFF770BB6FF0860070BC7047D9
:106FD0002DE9F34745680446DDE90A7A2D0A89461A
:106FE0001646984611D1CDE9007A02F0D1F810F199
:106FF000860F0CD14346324649462046CDE90A7AEF
:1070000002B0BDE8F047FFF7A7BB6FF0860002B003
:10701000BDE8F0872DE9F043DDE90BCED0F8049010
:107020005FEA192903D1BDE8F04301F02FBF6FF0EB
:107030008600BDE8F083F0B5D0F804E05FEA1E2ECC
:1070400003D1BDE8F04002F009BA6FF08600F0BD50
:1070500013B504464868000A0AD10498009004F168
:10706000080002F065FA08B90623236002B010BDDB
:107070006FF08600FAE713B504464868000A0AD1A3
:107080000498009004F1080002F084FA08B906237D
:10709000236002B010BD6FF08600FAE70368062B8C
:1070A00002D1083002F078BA6FF08600704710B451
:1070B0000468062C04D15DF8044B083002F0BCBA19
:1070C0006FF086005DF8044B70470368062B02D111
:1070D000083002F005BB6FF0860070472DE9F041E3
:1070E00098460D4600230E4690B007ACCDE90E330E
:1070F000844617460FCD0FC495E80700736884E8EF
:1071000007001B0A10D1189B60460493179B009739
:107110000393169B07A9CDE90183D6E9082301F063
:1071200023FF10B0BDE8F0816FF08600F9E76FF043
:107130004043421E9A4208D329B100F14040984290
:107140008CBF00210121084670470121FBE70000A8
:1071500000F100420332022A38B504460D460ED82B
:107160002821144B01FB02339A6882421CD1DA6950
:10717000511C1CD000200132DA612B6038BD012186
:10718000FFF7D5FF68B10B4B9A689442EFD01A6BAA
:10719000944204D09A6D944206D15033E7E72833E5
:1071A000E5E76FF08700E9E76FF08B00E6E76FF047
:1071B0009600E3E77C1C0020044A002092F8783017
:1071C00043F0010382F87830704700BF7C1C002038
:1071D00038B501250A4C2046E561FFF711FA04F1A4
:1071E00028006564FFF70CFA04F15000E566FFF72C
:1071F00007FA94F878306FF3000384F8783038BDDC
:107200007C1C0020F8B51E4C064694F878300F46DA
:10721000D8072ED500252346294618881A46A8B136
:107220002DB91A791AB1DA69002A08BF1D46013151
:10723000032903F12803F0D115B96FF08C001AE08F
:1072400001232846EB61FFF7DBF92A46D369591C75
:1072500002D16FF096000EE000200133D361141BC1
:10726000084BE4105C4304F10044033C34603A6092
:10727000F8BD6FF0880000233B603360F8E700BF83
:107280007C1C0020CDCCCCCC0023F0B50B60244B73
:10729000074693F878300D46DC0785B03CD5FFF7FC
:1072A00057FF10F18C0F044625D1294601A8FFF79E
:1072B000A9FF0446F8B901232E68CDE90200B760A2
:1072C0003046736003AA02A900F049F9044628B9C0
:1072D000DDE902123046FFF743F90446DDE9020119
:1072E00000F033F954B12868FFF78AF914F18C0FD4
:1072F00008BF6FF08704204605B0F0BD2B68DA6840
:10730000D00444BF42F48062DA60DA689104F2D5B6
:1073100042F40062DA60EEE76FF08804EBE700BF4A
:107320007C1C002038B1C3691BB1013BC361002044
:1073300070476FF09600704700207047C0B2FF287A
:107340000CBF6FF086000020704707B500216A4629
:1073500001F00EFD8C3018BF012003B05DF804FB76
:1073600013B500216A46044601F002FD8C3002D1BB
:10737000002002B010BD0021204601F02DFD014685
:1073800028B96A46204601F0F3FC8C30F0D06FF04B
:107390009800EEE730B4224D2C681C606C685C608D
:1073A00000241C725C729C72DC725468250A1C7387
:1073B0005D73250C240E9D73DC7314881C74240AE1
:1073C0005C7454889C74240ADC74D468250A1C7587
:1073D0005D75250C240E9D75DC751469250A1C76D7
:1073E0005D76250C240E9D76DC765269140A1A7798
:1073F0005C77140C120EDA770A0A83F821200A0C43
:1074000083F822200A0E9C7783F8201083F823202B
:1074100030BC0A46014603F1240020F037BD00BF0E
:10742000CA8503002DE9F843232904460F469146F7
:107430009846089E04D86FF098052846BDE8F88362
:107440000822194920F012FD05460028F3D1A3684F
:10745000002BF0D1216A243FB942C8F80010EAD8C5
:10746000B1F5005FE7D271B9C9F80000E368736055
:10747000238A3380638A73806369F360A36933610D
:10748000E3697361D9E70120FEF76AFCC9F80000DF
:1074900030B1D8F8002004F1240120F0F7FCE5E732
:1074A0006FF08C05C9E700BFCA8503002DE9FF41D5
:1074B00006461446884600293ED0002A3CD0B2F544
:1074C000005F3CD202F1240739460120FEF748FC58
:1074D0000546B8B30346324621464046FFF75AFFF9
:1074E000B66800243046FFF730FF01281ED0214641
:1074F0002B463A463046009401F04EFB0146C0B997
:10750000304602AA01F034FC044620B9029B9F4297
:1075100005D06FF098043046002101F05DFC28464C
:10752000FEF72FFC204604B0BDE8F0816FF08A041E
:10753000F5E76FF09804F2E76FF08604F2E76FF07A
:107540008D04EFE76FF08C04ECE710B5044608B14A
:10755000FEF724FC2046BDE81040FEF712BC2DE9E2
:10756000F047D0F808A086B081460F461646504630
:10757000002104AA01F0FCFB044610BBDDF81080DA
:1075800001204146FEF7ECFB0546002835D0214698
:10759000504604AA039401F0EBFB044670B903AB18
:1075A00002462146CDE900535046434601F07CFB9C
:1075B000039B0446984508D06FF098042846FEF7D0
:1075C000E0FB204606B0BDE8F0870028F6D1334640
:1075D0003A4641462846CDF80090FFF723FF04467F
:1075E0000028EBD13B682BB13368002B08BF6FF04C
:1075F0009104E3E76FF09104E0E76FF08C04E0E7BB
:107600000020704713B51AB10024009400F022FA4C
:1076100002B010BD1B0603F0706300F00F000902FA
:10762000034301F47061120402F470220B4313430C
:10763000014A1360704700BF0020025C60B5054638
:1076400019B10139B1F5806F10D2094EF06810F40C
:107650008030FBD143EA0121120741EA050302F021
:107660008052134343F00043736060BD0120FCE788
:107670000020025CF0B58DB005AC84E807001C4624
:10768000A1420D4628BF2546129B0DB304B31146F7
:107690002846002603F53813CDE90A468DE8030095
:1076A00003F241135F02C5EB4323099302950CAA31
:1076B000059B12E90700069500F0E0FCA54207D201
:1076C0003146621B381B0DB0BDE8F04000F0D4BC61
:1076D0000DB0F0BD30B591B001AC84E807001C4698
:1076E0001346DA0049BF029A6200033222F0030215
:1076F000014604A8FFF786FF04A800F0C1F9149919
:10770000224601F5381101F241114D0208A8C4EBDF
:1077100041210023FFF776FF05F500710023224683
:10772000091B0CA8FFF76EFF0CA800F0A9F908A927
:1077300004A800F07FF911B030BD70B590B001AC75
:1077400084E807001C461499164601F5381101F229
:10775000411122464D0208A8C4EB41210023FFF746
:1077600051FF05F5007122460023091B0CA8FFF705
:1077700049FF0CA800F084F9F30048BF029A334691
:1077800048BF033201994CBF22F00302620004A8F3
:10779000FFF738FF04A800F073F904A908A800F067
:1077A00049F910B070BD10B58CB005AC84E8070085
:1077B0000E9ADDE9060102F5381202F5A0725202B6
:1077C000CDE9092300228DE803000B9202930CAA55
:1077D000059B12E9070000F051FC0CB010BD000041
:1077E0000122054B9A60DA68D203FCD4D86820F0F5
:1077F0000F000004000C70470020025C2DE9F04BE4
:107800004FF0000899460746164645468AB003AC35
:1078100084E8070002F0805B07AC049A424502D876
:107820000AB0BDE8F08B139B13B9AA1E012A0AD92E
:10783000129BCDE90779099600955BB194E80700A2
:107840004B46FFF717FFBBF1000F00D14F44013546
:10785000C844E2E74B4694E80700FFF7A4FFF2E7CD
:10786000014B1868704700BF0040025C014B58682C
:10787000704700BF0010025C014B186B704700BFDF
:107880000010025C014B1868704700BF0010025CDA
:10789000014B9860704700BF0010025C014B1864F8
:1078A000704700BF0010025C014B5864704700BF76
:1078B0000010025C014B5863704700BF0010025C6F
:1078C0000022014B1A6070470010025C024A1368E4
:1078D00043F00103136070470010025C43F204029E
:1078E000014B1A60704700BF0010025C024A136827
:1078F00043F03003136070470010025C044B1A68B9
:1079000042F480721A601A6822F480721A6070471A
:107910000010025C024A136843F4806313607047EE
:107920000010025C034A136823F4702343EA00400A
:10793000106070470010025C044B1A6902605A69BB
:1079400042609A698260DB69C36070470010025C24
:107950000268044B1A6142685A6182689A61C2687F
:10796000DA6170470010025C024B1A6BD207FCD43C
:10797000186270470010025C82B01FB507930A9B23
:1079800004AC8B4228BF0B4604E907001048D10025
:10799000079948BF03330160099948BF23F00303E7
:1079A00023F0704301F0E041194341F00051816040
:1079B000002102F0E042019C134343F00053C160F8
:1079C00004618361416304B0BDE8104002B07047B8
:1079D0000000025C3F22034B1A631022DA6103228B
:1079E0009A6370470000025C024AD36B9B07FCD489
:1079F000704700BF0000025C034B986A10F024003F
:107A000018BF0420704700BF0000025C08B5FFF7F4
:107A1000F3FF064BDB6B23F47F4323F0EF030343B9
:107A20001EBF0122024BC3F8FC2F08BD0000025C00
:107A300000F0FF3F032208B5054B186019615A6337
:107A4000FFF7C8FFFFF7D0FFBDE80840FFF7DEBF34
:107A50000000025C10B522F0704200F11004C0E991
:107A60000014826041B1826803F070431343836065
:107A7000029BC360204610BD836843F08043F6E755
:107A800001234360C36843F02003C360836843F06D
:107A9000005383607047000042680346182A10B5FF
:107AA0000AD0202A1DD0102A2BD1174AD2F804243C
:107AB000D4010AD4012013E0134AD2F8042490011F
:107AC000F8D50A6842F008020A6010481A68824233
:107AD0004FF000000ED10A6842F040020A60586080
